:060000000A128A11DE2F36
:10000800F601F11F082809281028F009F109F00A5B
:100018000319F10AF601F60AF31F132814281D28FC
:10002800F209F309F20A0319F30A0130F40074081B
:10003800F606F701F8017008710403192428252829
:100048005C28F501F50A332801300310F00DF10D95
:10005800FF3E031D29280130F4007408F507F11F3D
:1000680036283728282801300310F70DF80DFF3EF1
:10007800031D382871087302031D44287008720292
:10008800031C472848284F287008F2027108031CEF
:10009800F303F302771401300310F10CF00CFF3E68
:1000A800031D50280130F502031D5B285C28372802
:1000B80076080319602861286628F709F809F70AFD
:1000C8000319F80A7808F1007708F000080083128D
:1000D8000313AB002130A600302925302C06031964
:1000E8007628772881282B0884002C088313800021
:1000F8000130A3002308AB073029A7010130A0076E
:10010800FF30200784000A128A150A200A128A1171
:10011800AC00A300A4012408003A0319942830294C
:100128002308003A03194029643A03199F280D3A15
:1001380003199F2830292608840083130008A90082
:10014800840A0008AA000230A3002308A607AA1FF1
:10015800AE28AF28B8280330A3002308A704A909AC
:10016800AA09A90A0319AA0AAC01AC0A2C08A30017
:100178002307013E84000A128A150A200A128A11EE
:10018800A4000A128A150A200A128A11A500250855
:100198002A02031DD128240829020318D428D528A7
:1001A800D628E0280130A3002308AC0705302C0628
:1001B800031DDF28E028BA28270803390319E52892
:1001C800E628EF282B0884002D30831380000130A7
:1001D800A3002308AB072C08A80027290A30F80039
:1001E8000030F9002808A3002307013E84000A1202
:1001F8008A150A200A128A11F0000A128A150A20A2
:100208000A128A11F1002A08F3002908F2000A12DA
:100218008A159A240A128A117108FB007008FA00DC
:100228000A128A159C230A128A117808303E831212
:100238000313AC002B0884002C08831380000130C2
:10024800A3002308AB07FF30A3002308A807280A48
:10025800031D2F293029F2280130A007FF3020077D
:1002680084000A128A150A200A128A11AC002C0886
:10027800031D3F29402971282B088400831380011E
:1002880008000A128A1548220A128A110A128A15C7
:10029800B6250A128A110A128A150C220A128A1124
:1002A8000630831603139F000A128A1517240A12B0
:1002B8008A110A128A1538230A128A110A128A1513
:1002C800D6230A128A110A128A1509230A128A11D8
:1002D8000830F40001300A128A15DE240A128A1145
:1002E8000A128A156D250A128A110A128A157226AF
:1002F8000A128A110830F40002300A128A15DE2424
:100308000A128A110A128A1524250A128A110A1257
:100318008A1514260A128A11823083120313DF0009
:10032800DD30DE00DE0B9629DF0B962983160313DA
:10033800B801B901B601B7015C300A128A15C421A7
:100348000A128A1107300A128A15BB220A128A1168
:10035800700883160313B8070318B90A7108B90798
:100368000130B6070318B70A0030B7073708803AD4
:10037800FF0080307F02031DC32910303602031CA2
:10038800C629C729A0291030F0000030F1008316D3
:1003980003133908F3003808F2000A128A110420FE
:1003A8000A128A11710883160313B9007008B8007D
:1003B800453083120313BD008030BC000030BB0001
:1003C8000030BA004030A300A030A2000030A100E5
:1003D8000030A000831603133808F0003908F10034
:1003E8000030F11BFF30F200F30001300A128A15C9
:1003F80048270A128A11730883120313A700720888
:10040800A6007108A5007008A4000A128A11992490
:100418000A128A11831203132308C1002208C0009C
:100428002108BF002008BE000A128A11C6220A123B
:100438008A11831203133D0883160313B300831232
:1004480003133C0883160313B200831203133B08FB
:1004580083160313B100831203133A088316031398
:10046800B000330883120313A7008316031332085E
:1004780083120313A6008316031331088312031390
:10048800A50083160313300883120313A400433016
:10049800A3007F30A2000030A1000030A0000A12A3
:1004A8008A1199240A128A11831203132308C1009E
:1004B8002208C0002108BF002008BE003F30BD0050
:1004C800B330BC003330BB003330BA000A128A1193
:1004D800C6220A128A11831203133D08D7003C086A
:1004E800D6003B08D5003A08D4000A128A15D0264F
:1004F8000A128A1183120313550883160313B500D1
:1005080083120313540883160313B400F401F40A86
:1005180001300A128A15DE240A128A111230F500F7
:100528008030F6000A128A1558240A128A110B30F4
:1005380083120313A00083160313350883120313D1
:10054800A20083160313340883120313A100A030FA
:100558000A128A116B200A128A11F401F40A023075
:100568000A128A15DE240A128A11A030F50000301A
:10057800F6000A128A1558240A128A116C290A12DE
:100588008A1100288312031341088039CB004108DF
:10059800C2004207D200C01FD22AD32AD42A52143A
:1005A80052080319D82AD92AE92A520A031DDD2A32
:1005B800DE2AE62A0030C1000030C0000030BF004B
:1005C8000030BE00C017C101F12A0030C100003060
:1005D800C0000030BF000030BE003D088039C200B6
:1005E8004208CB063D08C2004207D300BC1FFD2AC3
:1005F800FE2AFF2A531453080319032B042B142B28
:10060800530A031D082B092B112B0030BD000030A5
:10061800BC000030BB000030BA00BC17BD011C2B69
:100628000030BD000030BC000030BB000030BA0014
:100638003D083C043B043A04031D232B242B3D2B8B
:100648000030C1000030C0000030BF000030BE00E4
:100658008030C0047F30C1044B08C2004208C10486
:100668004108BD004008BC003F08BB003E08BA0076
:10067800982C5208031D412B422B4B2B0030BD00F8
:100688000030BC000030BB000030BA00982C520883
:10069800C200C3014308C50053084202C400031C3A
:1006A800C50344087F3ECC0045080318013E003EC0
:1006B800CD004108CA004008C9003F08C8003E08EC
:1006C800C7000030C1000030C0000030BF0000305B
:1006D800BE000030D1000030D0000030CF00003024
:1006E800CE00D301C12B530803197B2B7C2B9C2BE9
:1006F8000130C2000310C70DC80DC90DCA0DC20BC9
:100708007E2B0130C2000310BE0DBF0DC00DC10D00
:10071800C20B872BD11F912B922B932B3E140130A8
:10072800C2000310CE0DCF0DD00DD10DC20B952BED
:100738003D084A02031DAA2B3C084902031DAA2BA7
:100748003B084802031DAA2B3A084702031CAD2B9D
:10075800AE2BBD2B51173A08C7023B08031C3B0FB1
:10076800C8023C08031C3C0FC9023D08031C3D0F8E
:10077800CA020130C2004208D3071A305302031CD0
:10078800C62BC72B772B4A0849044804470403198A
:10079800CE2BCF2BEE2B4E14EE2B0130C2000310C4
:1007A800BE0DBF0DC00DC10DC20BD32BD11FDD2B4C
:1007B800DE2BDF2B3E140130C2000310CE0DCF0D0F
:1007C800D00DD10DC20BE12BFF30CC070318CD0A99
:1007D800FF30CD07C01FF12BF22BD12BD301D11F36
:1007E800F62BF72B132CFF304E05C200FF304F05B8
:1007F800C300FF305005C4007F305105C5004508CF
:1008080044044304420403190A2C0B2C0E2CD30174
:10081800D30A132C3E1C112C122C132C0B2C53080E
:100828000319172C182C492C0130BE070030031867
:100838000130BF07003003180130C007003003182B
:100848000130C107411C292C2A2C492C3E08C20022
:100858003F08C3004008C4004108C5000130C60075
:10086800450DC50CC40CC30CC20CC60B342C450872
:10087800C1004408C0004308BF004208BE00013060
:10088800CC070318CD0A0030CD074D08803AFF0089
:1008980080307F02031D522CFF304C02031C552C64
:1008A800562C642CFF3083120313CC000030CD008B
:1008B8000030C1000030C0000030BF000030BE0072
:1008C800831203134D08803AFF0080307F02031D16
:1008D8006F2C01304C020318722C732C802C83125D
:1008E8000313CC01CD010030C1000030C00000303E
:1008F800BF000030BE00CB01831203134C08D200A6
:10090800521C872C882C8A2CC0178E2C7F30C20052
:100918004208C0055208C2000310420CC1004B082F
:10092800C2004208C104342B0800831203132308B1
:100938008039AD002308A8002807B300A21FA52C02
:10094800A62CA72C331433080319AB2CAC2CBB2CC6
:10095800330A031DB02CB12CB92C0030A300003091
:10096800A2000030A1000030A000A217C32C003064
:10097800A3000030A2000030A1000030A00027082A
:100988008039A8002808AD062708A8002807B20063
:10099800A61FCF2CD02CD12C321432080319D52CF9
:1009A800D62CE52C320A031DDA2CDB2CE32C003084
:1009B800A7000030A6000030A5000030A400A6174C
:1009C800ED2C0030A7000030A6000030A500003054
:1009D800A40032080319F12CF22CF72C3308031D5C
:1009E800F62CF72C002D0030A3000030A2000030B8
:1009F800A1000030A000DD2F2008F00026080A1210
:100A08008A15E2220A128A11710883120313B900A7
:100A18007008B8003808A800A901AA01AB012B0882
:100A2800B1002A08B0002908AF002808AE0039082C
:100A3800A800A901AA01AB012B08B7002A08B60033
:100A48002908B5002808B4002108F00025080A1272
:100A58008A15E2220A128A11710883120313B90057
:100A68007008B8003808A800A901AA01AB01280835
:100A7800AE07290803110318013E0319442DAF07D7
:100A88002A0803110318013E03194B2DB0072B0840
:100A980003110318013E0319522DB1073908A800A4
:100AA800A901AA01AB012808B407290803110318F2
:100AB800013E0319602DB5072A0803110318013EEA
:100AC8000319672DB6072B0803110318013E0319F4
:100AD8006E2DB7072208F00024080A128A15E222B0
:100AE8000A128A11710883120313B9007008B8003A
:100AF8003808A800A901AA01AB012808AE072908EF
:100B080003110318013E03198A2DAF072A080311A0
:100B18000318013E0319912DB0072B080311031880
:100B2800013E0319982DB1073908A800A901AA01A7
:100B3800AB012808B407290803110318013E03195B
:100B4800A62DB5072A0803110318013E0319AD2D78
:100B5800B6072B0803110318013E0319B42DB70774
:100B68000830A8000310AE0DAF0DB00DB10DA80BE5
:100B7800B62D2108F00024080A128A15E2220A126A
:100B88008A11710883120313B9007008B800380875
:100B9800A8003908A900AA01AB012808AE0729084E
:100BA80003110318013E0319DA2DAF072A080311B0
:100BB8000318013E0319E12DB0072B080311031890
:100BC800013E0319E82DB1072008F00025080A1294
:100BD8008A15E2220A128A11710883120313B900D6
:100BE8007008B8003808A8003908A900AA01AB01A4
:100BF8002808AE07290803110318013E0319052E1A
:100C0800AF072A0803110318013E03190C2EB00779
:100C18002B0803110318013E0319132EB1070830DE
:100C2800A8000310AE0DAF0DB00DB10DA80B152E19
:100C38002008F00024080A128A15E2220A128A11F2
:100C4800710883120313B9007008B8003808A800A7
:100C58003908A900AA01AB012808AE072908031121
:100C68000318013E0319392EAF072A080311031888
:100C7800013E0319402EB0072B0803110318013E4B
:100C88000319472EB1072108F00026080A128A1511
:100C9800E2220A128A11710883120313B90070083C
:100CA800B8003808A8003908A900AA01AB0128082B
:100CB800B407290803110318013E0319642EB50768
:100CC8002A0803110318013E03196B2EB6072B08D7
:100CD80003110318013E0319722EB7072208F0000A
:100CE80025080A128A15E2220A128A11710883124B
:100CF8000313B9007008B8003808A8003908A9001B
:100D0800AA01AB012808B407290803110318013EFA
:100D180003198F2EB5072A0803110318013E03197A
:100D2800962EB6072B0803110318013E03199D2EB2
:100D3800B7072208F00026080A128A15E2220A12CA
:100D48008A11710883120313B9007008B8003808B3
:100D5800A8003908A900AA01AB0108300310A80DA2
:100D6800A90DAA0DAB0DFF3E031DB22E2808B4072E
:100D7800290803110318013E0319C32EB5072A08D1
:100D880003110318013E0319CA2EB6072B080311D5
:100D98000318013E0319D12EB7072E08A8002F0803
:100DA800A9003008AA003108AB0018300310AB0CBA
:100DB800AA0CA90CA80CFF3E031DDA2E2808B407BC
:100DC800290803110318013E0319EB2EB5072A0859
:100DD80003110318013E0319F22EB6072B0803115D
:100DE8000318013E0319F92EB7070830A8000310AD
:100DF800AE0DAF0DB00DB10DA80BFB2E33083207A9
:100E0800A800A901A90D2808823EB80029080318DE
:100E1800013EFF3EB9002D2F0130A8000310B40D8C
:100E2800B50DB60DB70DA80B122FB11F1C2F1D2F16
:100E38001E2F34140130A8000310AE0DAF0DB00DF5
:100E4800B10DA80B202FFF30B8070318B90AFF30DF
:100E5800B907B61F302F312F102FB201B11F352F10
:100E6800362F522FFF302E05A800FF302F05A9007E
:100E7800FF303005AA007F303105AB002B082A046B
:100E8800290428040319492F4A2F4D2FB201B20A09
:100E9800522F341C502F512F522F4A2F320803192A
:100EA800562F572F882F0130B40700300318013010
:100EB800B507003003180130B607003003180130B9
:100EC800B707371C682F692F882F3408A800350802
:100ED800A9003608AA003708AB000130AC002B0D7A
:100EE800AB0CAA0CA90CA80CAC0B732F2B08B700E1
:100EF8002A08B6002908B5002808B4000130B80748
:100F08000318B90A0030B9073908803AFF00803061
:100F18007F02031D912FFF303802031C942F952F59
:100F2800A02F7F3083120313B7008030B600003043
:100F3800B5000030B400D12F831203133908803A6A
:100F4800FF0080307F02031DAB2F013038020318E9
:100F5800AE2FAF2FBB2F003083120313B700003022
:100F6800B6000030B5000030B400AD01D12F8312B7
:100F780003133808B300FF30B405FF30B5057F30E0
:100F8800B6050030B705331CCA2FCB2FCC2FB617A8
:100F98003308A8000310280CB7002D08A80028085B
:100FA800B7043708A3003608A2003508A1003408A2
:100FB800A00008008313DC30FD000A30FE00273053
:100FC800FF00CE3084000A128A1539220A128A11CB
:100FD800BA308400CE300A128A15BC210A128A114E
:100FE800603084006D300A128A15BC210A128A11F9
:100FF80083010A128A114529FF1B0A2883137F18C7
:1010080083170008840A0319FF0A080008308A00B9
:101018000408840A82070034013400340A34003496
:1010280064340034E8340334103427342534643409
:101038002034703470346D34003443344F343A34CF
:02104800003472
:1013780064008001840A0406031900340406BD29A8
:10138800F000831603139F017008831203139F0054
:10139800080083160313111483128C1DD429D52930
:1013A800D0298C11080083160313111583128C1D84
:1013B800DE29DF29DA298C1108008316031391141A
:1013C80083128C1DE829E929E4298C110800831669
:1013D80003139112111683128C1DF329F429EF2996
:1013E8008C110800831603139116111683128C1D95
:1013F800FE29FF29FA298C11080083160313911579
:1014080083128C1D082A092A042A8C111308080043
:1014180000300A128A1560220A128A1501300A124F
:101428008A1560220A128A150800F00070088312D3
:10143800031393008C1D212A222A1E2A8C1183163D
:10144800031311080800303439343034333432345B
:101458003334003430343034303430343034303491
:1014680000347E088A007F0882000A128A15352215
:101478000A128A158000840A04087D0603190034BC
:10148800FF0A0319FE0A392A5C3083160313850004
:1014980085018312031385018316031788018901C7
:1014A800831603130F138F160F1280300A128A1532
:1014B8007A220A128A150800F30083120313051012
:1014C80073080A128A1599220A128A1583120313BD
:1014D80085140B30F2006230F100F10B712AF20B27
:1014E800712A00008312031385100800F000831688
:1014F8000313871507167008940028308312031306
:10150800940083160313910180307006031D8D2A01
:101518008E2A912A13309300982A7008031D952A61
:10152800962A982A1D3093000800F000701C9D2A06
:101538009E2AA22A831203130515A52A83120313D0
:101548000511F01CA82AA92AAB2A8515AC2A8511F1
:10155800701DAF2AB02AB22A0516B32A0512F01D4B
:10156800B62AB72AB92A8516BA2A85120800F400BD
:101578000E307402031CC12AC22AC52AF001F101E7
:10158800E12A4030831203139F007408F2000130EF
:101598000310F20DFF3E031DCC2A0310720D9F00AD
:1015A8001F149F149F18D92ADA2AD62A1E08F20077
:1015B800F3017208F0007308F1000800F800F40164
:1015C800F5017008F200F3017208F6007308F700DD
:1015D800781CEF2AF02AF62A7608F4070318F50A89
:1015E8007708F50701300310F60DF70DFF3E031DD0
:1015F800F72A0310F80C7808031D032B042BEC2A98
:101608007508F1007408F00008000A128A15CD2147
:101618000A128A15D0300A128A1519220A128A1556
:1016280004300A128A1519220A128A158312031322
:1016380068080A128A1519220A128A1583120313D6
:1016480067080A128A1519220A128A1583120313C7
:1016580066080A128A1519220A128A150A128A15A8
:10166800D7210A128A1508000A128A15CD210A12F2
:101678008A15D0300A128A1519220A128A150030E2
:101688000A128A1519220A128A15831203136B0883
:101698000A128A1519220A128A15831203136A0874
:1016A8000A128A1519220A128A1583120313690865
:1016B8000A128A1519220A128A150A128A15D721BE
:1016C8000A128A150800F40074080F39F200740829
:1016D800F039F3008312031305147308F100043082
:1016E8000310F10CFF3E031D742B71080A128A15B2
:1016F80099220A128A158312031385141A30F100ED
:10170800F10B842B000083120313851072080A1250
:101718008A1599220A128A158312031385141A301E
:10172800F100F10B952B00008312031385100800BC
:10173800780879040319A12BA22BD12BFD01FD0AEE
:10174800B02B01300310F80DF90DFF3E031DA62B39
:101758000130FC007C08FD07F91FB32BB42BA52B27
:1017680079087B02031DBA2B78087A02031CBD2B6B
:10177800BE2BC42B7808FA027908031CFB03FB0272
:1017880001300310F90CF80CFF3E031DC52B013086
:10179800FD02031DD02BD12BB42B7B08F9007A084E
:1017A800F8000800F1010F30F0007108CE3E840007
:1017B8007008831380050130F0007008F1070730C6
:1017C8007102031CE82BE92BD72B831603134E0851
:1017D800F00004300310F00DFF3E031DEE2B4F0800
:1017E800700783120313E800831603135008F000F0
:1017F80004300310F00DFF3E031DFD2B5108700748
:1018080083120313E700831603135208F000043011
:101818000310F00DFF3E031D0C2C530870078312B4
:101828000313E6000800F1010F30F0007108D53EFF
:1018380084007008831380050130F0007008F107F8
:1018480007307102031C292C2A2C182C8316031329
:101858005508F00004300310F00DFF3E031D2F2C37
:101868005608700783120313E900831603135708F9
:10187800F00004300310F00DFF3E031D3E2C580805
:10188800700783120313EA00831603135908F00044
:1018980004300310F00DFF3E031D4D2C5A0870074D
:1018A80083120313EB000800FA01FB017D2C7A0870
:1018B8007507F8007608F7000318F70AFA1F652C71
:1018C800F7037708F900790883120313FF007808F3
:1018D80084000A128A1500200A128A150A128A152B
:1018E80067230A128A150130FA070318FB0A003029
:1018F800FB077A087507F8007608F7000318F70A57
:10190800FA1F872CF7037708F90079088312031365
:10191800FF00780884000A128A1500200A128A1526
:10192800003A031D982C992C5B2C0800F501F60150
:10193800700871040319A12CA22CD92CF701F70AFD
:10194800B02C01300310F00DF10DFF3E031DA62C45
:101958000130F4007408F707F11FB32CB42CA52C40
:1019680001300310F50DF60DFF3E031DB52C71086F
:101978007302031DC12C70087202031CC42CC52CF1
:10198800CC2C7008F2027108031CF303F3027514DF
:1019980001300310F10CF00CFF3E031DCD2C01307B
:1019A800F702031DD82CD92CB42C7608F100750841
:1019B800F0000800F6007603031DE32CE42C012D4B
:1019C80074087F3EF9007908F50004300310F50C1F
:1019D800FF3E031DEA2C7508F70079080F39F80057
:1019E80077080A128A1560220A128A1578080A12DC
:1019F8008A1560220A128A15232D02307606031DE5
:101A0800062D072D232D7408BF3EF9007908F5002F
:101A180004300310F50CFF3E031D0D2D7508F7006B
:101A280079080F39F80077080A128A1560220A1215
:101A38008A1578080A128A1560220A128A1508007F
:101A48000A128A15CD210A128A15D0300A128A156F
:101A580019220A128A1504300A128A1519220A1242
:101A68008A150A128A15E1210A128A15D1300A123A
:101A78008A1519220A128A150A128A1501220A12CF
:101A88008A1583120313E8000A128A15EB210A1239
:101A98008A150A128A1501220A128A15831203135B
:101AA800E7000A128A15EB210A128A150A128A150A
:101AB80001220A128A1583120313E6000A128A15F4
:101AC800F6210A128A150A128A15D7210A128A15CE
:101AD80008000A128A15CD210A128A15D0300A1276
:101AE8008A1519220A128A1500300A128A15192233
:101AF8000A128A150A128A15E1210A128A15D130AA
:101B08000A128A1519220A128A150A128A1501223E
:101B18000A128A1583120313EB000A128A15EB21A5
:101B28000A128A150A128A1501220A128A158312C4
:101B38000313EA000A128A15EB210A128A150A12FF
:101B48008A1501220A128A1583120313E9000A1260
:101B58008A15F6210A128A150A128A15D7210A123D
:101B68008A15080000300A128A1599220A128A1565
:101B78003430F500F130F400F40BC02DF50BC02D16
:101B8800C52D03300A128A1560220A128A150D30F3
:101B9800F500FB30F400F40BCF2DF50BCF2DD42D31
:101BA80003300A128A1560220A128A158530F40059
:101BB800F40BDC2D03300A128A1560220A128A15EA
:101BC80002300A128A1560220A128A1502300A1295
:101BD8008A1560220A128A1508300A128A156022AC
:101BE8000A128A1500300A128A1560220A128A150A
:101BF8000C300A128A1560220A128A1500300A125D
:101C08008A1560220A128A1506300A128A1560227D
:101C18000A128A154230F400F40B102E0000080056
:101C2800831203136808F50004300310F50CFF3E17
:101C3800031D192E7508303E0A128A1567230A12E9
:101C48008A158312031368080F39303E0A128A1561
:101C580067230A128A152F300A128A1567230A1277
:101C68008A15831203136708F50004300310F50C76
:101C7800FF3E031D3A2E7508303E0A128A15672367
:101C88000A128A158312031367080F39303E0A12A5
:101C98008A1567230A128A152F300A128A156723B4
:101CA8000A128A15831203136608F500043003101C
:101CB800F50CFF3E031D5B2E7508303E0A128A158F
:101CC80067230A128A158312031366080F39303EF8
:101CD8000A128A1567230A128A1508008312031349
:101CE8006908F50004300310F50CFF3E031D772E3C
:101CF8007508303E0A128A1567230A128A1583125C
:101D0800031369080F39303E0A128A1567230A122D
:101D18008A153A300A128A1567230A128A1583121D
:101D280003136A08F50004300310F50CFF3E031D89
:101D3800982E7508303E0A128A1567230A128A15EA
:101D4800831203136A080F39303E0A128A15672373
:101D58000A128A153A300A128A1567230A128A1556
:101D6800831203136B08F50004300310F50CFF3ED3
:101D7800031DB92E7508303E0A128A1567230A1208
:101D88008A15831203136B080F39303E0A128A151D
:101D980067230A128A150800031083120313560DCD
:101DA800570DDD005D08031DDA2EDB2EE42E003012
:101DB800D7000030D6000030D5000030D400472FBF
:101DC8005408D8005508D9005608DA005708DB002F
:101DD8001F300310DB0CDA0CD90CD80CFF3E031DA6
:101DE800ED2E5808DC00D617FF30D405FF30D50596
:101DF800FF30D6050030D7059630DD02DD1F052FF0
:101E0800062F202F5D08803A973E03180C2F0D2FC0
:101E18000E2FDB2E01300310D70CD60CD50CD40CAA
:101E2800FF3E031D0F2F0130D8005808DD07031DA2
:101E38001E2F1F2F0E2F372F20305D02031C252F3A
:101E4800262F322FDB2E0130D8000310D40DD50DEC
:101E5800D60DD70DD80B292F0130DD025D08031DE3
:101E6800362F372F272F5C0803193B2F3C2F472F7E
:101E7800D409D509D609D709D40A0319D50A0319EB
:101E8800D60A0319D70A0800F800780803194D2F55
:101E98004E2F622FF31F512F522F622F7009FA0015
:101EA8007109FB007209FC007309FD00FA0A0319A5
:101EB800FB0A0319FC0A0319FD0A6A2F7308FD00BF
:101EC8007208FC007108FB007008FA0073087204BD
:101ED80071047004031D712F722F7B2F0030F300E3
:101EE8000030F2000030F1000030F000FF2F963093
:101EF800F9008B2F0130F4007408F9070130031042
:101F0800FD0CFC0CFB0CFA0CFF3E031D832FFE306E
:101F18007D05031D902F912F7E2FAD2F0130F400EA
:101F28007408F9070130FA07003003180130FB077D
:101F3800003003180130FC07003003180130FD079A
:101F480001300310FD0CFC0CFB0CFA0CFF3E031DCA
:101F5800A52FFF307D05031DB22FB32F922FBF2F62
:101F68000130F9020130F4000310FA0DFB0DFC0DED
:101F7800FD0DF40BB82FFC1BC22FC32FC92F023045
:101F880079020318C82FC92FB42F7918CC2FCD2F59
:101F9800D52FFF30FA05FF30FB057F30FC05FF30F9
:101FA800FD050310F90C7908F400F501F601F701B5
:101FB80018300310F40DF50DF60DF70DFF3E031D57
:101FC800DD2F7408FA047508FB047608FC0477080A
:101FD800FD0478080319F12FF22FF72FF31FF52FBF
:101FE800F62FF72FFD177D08F3007C08F2007B0819
:081FF800F1007A08F000080076
:08400000FF3FFF3FFF3FFF3FC0
:04400E00D420FF3F7C
:00000001FF
