:100000000A128A11D92F00308A000408840A820754
:08001000003425347334003480
:1002180064008001840A04060319003404060D29C9
:10022800F000831603139F017008831203139F00C5
:1002380008000A128A1142210A128A11831603132E
:10024800911408000A128A1142210A128A1183168F
:100258000313111408000A128A1142210A128A1182
:1002680083160313111508000A128A1142210A1273
:100278008A1170088312031393000800831603136E
:10028800141947294829422911081F39031D4D29E6
:100298004E294229080000300A128A117D210A12CB
:1002A8008A1101300A128A117D210A128A11080066
:1002B8003034303430343034303430340034303446
:1002C8003034303430343034303400347E088A00EE
:1002D8007F0882000A128A116A210A128A11800094
:1002E800840A04087D0603190034FF0A0319FE0A6C
:1002F8006E29F30083120313051073080A128A117A
:1003080097210A128A118312031385140B30F20005
:100318006230F100F10B8E29F20B8E290000831256
:10032800031385100800F000701C9B299C29A02944
:10033800831203130515A329831203130511F01C57
:10034800A629A729A9298515AA298511701DAD29CE
:10035800AE29B0290516B1290512F01DB429B52911
:10036800B7298516B82985120800F4000E307402E2
:10037800031CBF29C029C329F001F101DF2940303E
:10038800831203139F007408F20001300310F20D6A
:10039800FF3E031DCA290310720D9F001F149F14EE
:1003A8009F18D729D829D4291E08F200F30172080A
:1003B800F0007308F10008000A128A1142210A129B
:1003C8008A118316031391150A128A1142210A12FF
:1003D8008A11831203131308F200F3017208F40060
:1003E8007308F5000A128A1142210A128A11700351
:1003F8007104031D002A012A052A8316031391128A
:10040800082A83160313911611167508F10074084B
:10041800F00008000730F40001300A128A1159234D
:100428000A128A110A128A1179240A128A110A12E6
:100438008A1174250A128A110730F40002300A1250
:100448008A1159230A128A110A128A11C7240A1218
:100458008A110A128A1116250A128A110230FC0022
:100468000430FB00BA30FA00FA0B382AFB0B382AA2
:10047800FC0B382A00000800F40074080F39F20059
:100488007408F039F3008312031305147308F1009C
:1004980004300310F10CFF3E031D4D2A71080A12A7
:1004A8008A1197210A128A118312031385141A30AC
:1004B800F100F10B5D2A0000831203138510720806
:1004C8000A128A1197210A128A11831203138514BA
:1004D8001A30F100F10B6E2A000083120313851005
:1004E8000800F1010F30F0007108443E84007008E4
:1004F800831380050130F0007008F107073071029E
:10050800031C872A882A762A831203134408F000DA
:1005180004300310F00DFF3E031D8D2A45087007B7
:10052800BB004608F00004300310F00DFF3E031D29
:10053800982A47087007BA004808F00004300310EA
:10054800F00DFF3E031DA32A49087007B9000800F3
:10055800F1010F30F00071084B3E840070088313DE
:1005680080050130F0007008F10707307102031CA4
:10057800BE2ABF2AAD2A831203134B08F0000430A9
:100588000310F00DFF3E031DC42A4C087007BC0081
:100598004D08F00004300310F00DFF3E031DCF2A74
:1005A8004E087007BD004F08F00004300310F00D2E
:1005B800FF3E031DDA2A50087007BE0008002830E5
:1005C80083120313940083160313910183120313F8
:1005D8005208D6005308D7005408D8005508D90047
:1005E80002300310D60DD70DD80DD90DFF3E031DCF
:1005F800F52A5908F3005808F2005708F100560880
:10060800F0000030F7007A30F6001230F5000030C4
:10061800F4000A128A1130260A128A117008FF3E65
:100628008316031393009401871507160800831691
:1006380003130F140F178F160F16831603170810BE
:1006480088100811881108128816091089100911D4
:100658000912831603138501831203138501831678
:1006680003130614861406158615831203138601D0
:100678008B15831603138113151495141515151569
:100688000A128A11D2250A128A1100308312031322
:10069800D5000130D4008630D300A030D2000A1231
:1006A8008A11E3220A128A110800F6007603031D54
:1006B8005E2B5F2B7C2B74087F3EF9007908F500D0
:1006C80004300310F50CFF3E031D652B7508F70079
:1006D80079080F39F80077080A128A117D210A1261
:1006E8008A1178080A128A117D210A128A119E2B12
:1006F80002307606031D812B822B9E2B7408BF3E89
:10070800F9007908F50004300310F50CFF3E031DCD
:10071800882B7508F70079080F39F80077080A124E
:100728008A117D210A128A1178080A128A117D21FC
:100738000A128A1108000A128A1126210A128A113D
:10074800D030F0000030F1000A128A1138210A1264
:100758008A110030F000F1000A128A1138210A12B9
:100768008A11831203133E08F200F3017208F000A5
:100778007308F1000A128A1138210A128A118312A9
:1007880003133D08F200F3017208F0007308F1004A
:100798000A128A1138210A128A11831203133C089B
:1007A800F200F3017208F0007308F1000A128A11CE
:1007B80038210A128A110A128A112F210A128A1163
:1007C80008000A128A1126210A128A11D030F00074
:1007D8000030F1000A128A1138210A128A110430F5
:1007E800F0000030F1000A128A1138210A128A1129
:1007F800831203133B08F200F3017208F000730838
:10080800F1000A128A1138210A128A11831203137D
:100818003A08F200F3017208F0007308F1000A12B6
:100828008A1138210A128A11831203133908F20037
:10083800F3017208F0007308F1000A128A113821D6
:100848000A128A110A128A112F210A128A11080023
:1008580044346F346D3469346E3467346F34003423
:100868000034003400344C3475346E3465347334D9
:100878000034003400340034003400344D34613422
:100888007234743465347334003400340034003402
:1008980000344D3469346534723463346F346C34E5
:1008A80065347334003400344A347534653476342E
:1008B8006534733400340034003400340034563462
:1008C8006934653472346E346534733400340034FA
:1008D80000340034533461346234613464346F3426
:1008E800003400340034003400340A128A112621FE
:1008F8000A128A11D030F0000030F1000A128A1171
:1009080038210A128A110030F000F1000A128A1107
:1009180038210A128A110A128A111D210A128A1113
:10092800D130F0000030F1000A128A1138210A1281
:100938008A110030F000F1000A128A11E0210A122F
:100948008A11700883120313BE000030F000F10012
:100958000A128A11E0210A128A11700883120313FD
:10096800BD000030F000F1000A128A11E0210A12DD
:100978008A11700883120313BC000A128A112F21EE
:100988000A128A1108000A128A1126210A128A11EB
:10099800D030F0000030F1000A128A1138210A1212
:1009A8008A110430F0000030F1000A128A1138214F
:1009B8000A128A110A128A111D210A128A11D130CB
:1009C800F0000030F1000A128A1138210A128A1147
:1009D8000030F000F1000A128A11E0210A128A118F
:1009E800700883120313BB000030F000F1000A12F4
:1009F8008A11E0210A128A11700883120313BA00BF
:100A08000030F000F1000A128A11E0210A128A115E
:100A1800700883120313B9000A128A112F210A12CF
:100A28008A110800831203133B08F50004300310F1
:100A3800F50CFF3E031D1B2D7508303E0A128A1166
:100A480040220A128A11831203133B080F39303EE1
:100A58000A128A1140220A128A112F300A128A11A8
:100A680040220A128A11831203133A08F50004304F
:100A78000310F50CFF3E031D3C2D7508303E0A128D
:100A88008A1140220A128A11831203133A080F3975
:100A9800303E0A128A1140220A128A112F300A1295
:100AA8008A1140220A128A11831203133908F500A9
:100AB80004300310F50CFF3E031D5D2D7508303E14
:100AC8000A128A1140220A128A1183120313390862
:100AD8000F39303E0A128A1140220A128A11080080
:100AE800831203133C08F50004300310F50CFF3E95
:100AF800031D792D7508303E0A128A1140220A1208
:100B08008A11831203133C080F39303E0A128A11E6
:100B180040220A128A113A300A128A1140220A1215
:100B28008A11831203133D08F50004300310F50CF5
:100B3800FF3E031D9A2D7508303E0A128A11402285
:100B48000A128A11831203133D080F39303E0A1224
:100B58008A1140220A128A113A300A128A11402256
:100B68000A128A11831203133E08F5000430031099
:100B7800F50CFF3E031DBB2D7508303E0A128A1185
:100B880040220A128A11831203133E080F39303E9D
:100B98000A128A1140220A128A11080000300A1229
:100BA8008A1197210A128A113430F500F130F400C5
:100BB800F40BDC2DF50BDC2DE12D03300A128A1124
:100BC8007D210A128A110D30F500FB30F400F40B78
:100BD800EB2DF50BEB2DF02D03300A128A117D2138
:100BE8000A128A118530F400F40BF82D03300A122A
:100BF8008A117D210A128A1102300A128A117D2176
:100C08000A128A1102300A128A117D210A128A11E7
:100C180008300A128A117D210A128A1100300A123C
:100C28008A117D210A128A110C300A128A117D213B
:100C38000A128A1100300A128A117D210A128A11B9
:100C480006300A128A117D210A128A114230F400F4
:100C5800F40B2C2E000008000030FC000030FB00D4
:100C68000030FA000030F90073087204710470044F
:100C780003193F2E402E8D2EFD01FD0A502E013006
:100C8800F8000310F00DF10DF20DF30DF80B452EE1
:100C98000130F8007808FD07F31F532E542E432E19
:100CA8000130F8000310F90DFA0DFB0DFC0DF80BDF
:100CB800562E73087702031D6B2E72087602031DE9
:100CC8006B2E71087502031D6B2E70087402031CCD
:100CD8006E2E6F2E7E2E7008F4027108031C710FA1
:100CE800F5027208031C720FF6027308031C730FD7
:100CF800F702791401300310F30CF20CF10CF00C2C
:100D0800FF3E031D7F2E0130FD02031D8C2E8D2E0C
:100D1800542E7C08F3007B08F2007A08F100790869
:100D2800F000080083120313D2005330840005300A
:100D3800FF0083138001840AFF0B9D2E8316031383
:100D480007108312031307102F30F200BF30F10091
:100D5800F10BAC2EF20BAC2EB12E83120313071439
:100D68001330F100F10BB62EB92E831603130714B6
:100D780083120718C02EC12EBC2E071CC42EC52EE8
:100D8800C12E0718C82EC92EC52ED801D901071C97
:100D9800CE2ECF2ECB2E1A30F100F10BD12E000023
:100DA80083120313071CD92EDA2EED2E0130F10021
:100DB8005908073C013EE22E0310F10DFF3E031DCA
:100DC800E02E7108F2005808533E8400720883131D
:100DD80080040718F02EF12EED2E0130F100710875
:100DE800D90708305902031CFA2EFB2ECB2E0130EE
:100DF800F1007108D80705305802031C042F052F8D
:100E0800CA2E53085407F100F201F20D5508710774
:100E1800F3000030031801307207F4005608730716
:100E2800F5000030031801307407F60057087506FE
:100E380076040319202F212F232F00302D2F52083D
:100E480084005308831380007008840055088000CC
:100E5800013008000A128A111B230A128A11543021
:100E68000A128A1114210A128A1158300A128A1198
:100E780014210A128A110630831603139F000A12DE
:100E88008A11AC220A128A110A128A119F230A12A5
:100E98008A110A128A1175220A128A110A128A11F3
:100EA800E5230A128A1105300A128A11B9210A1299
:100EB8008A11700883120313C10006300A128A11BE
:100EC800B9210A128A11700883120313C0000A128A
:100ED8008A1126210A128A11A030F0000030F10090
:100EE8000A128A1138210A128A118312031341083F
:100EF800DA00DB015A08F0005B08F1000A128A11D7
:100F080038210A128A110A128A112F210A128A110B
:100F1800033083120313DC000830DB007630DA007C
:100F2800DA0B942FDB0B942FDC0B942F000043304B
:100F3800F00042300A128A1196260A128A110B30E2
:100F480083120313DC002630DB005D30DA00DA0B95
:100F5800AB2FDB0BAB2FDC0BAB2F83120313061865
:100F6800B62FB72FD02F061CBA2FBB2FB72F343070
:100F780083120313DB00F130DA00DA0BC12FDB0B2D
:100F8800C12F0A128A114F210A128A1101308312C5
:100F98000313DA005A08BF070A128A110E220A122E
:100FA8008A11572F0A128A1100288313ED30FD0089
:100FB8000430FE002C30FF00A03084000A128A1191
:100FC8006E210A128A115230FD000130FE005C3099
:100FD800FF00443084000A128A116E210A128A1115
:100FE8002030840044300A128A110C210A128A1116
:080FF80083010A128A112E2F59
:08400000FF3FFF3FFF3FFF3FC0
:04400E00D420FF3F7C
:00000001FF
